:10000000804F0120CDB60000A1970400A1B60000EA
:10001000A1B60000A1B60000A1B6000000000000DB
:10002000000000000000000000000000CDB2000051
:10003000A1B600000000000039B20000A1B6000027
:1000400059B4000071BA040059B4000059B400005A
:1000500059B4000059B4000059B4000059B400006C
:100060001FBA040059B4000059B4000057BA040084
:1000700059B4000059B4000059B4000059B400004C
:1000800059B4000059B4000059B4000059B400003C
:1000900059B4000059B4000059B4000059B400002C
:1000A00059B4000059B4000059B4000059B400001C
:1000B00059B4000059B4000059B4000059B400000C
:1000C00059B4000059B4000059B4000059B40000FC
:1000D00059B4000059B4000059B4000059B40000EC
:1000E00059B4000059B4000059B4000059B40000DC
:1000F00059B4000059B4000059B4000059B40000CC
:1001000001F0FF01102A2BDB10F0070F08D010F8C8
:10011000013B013A8B422DD010F0070F42B3F6D1CC
:10012000F0B441EA012141EA014122F007047FF0E5
:1001300000070023F0E80256083C85EA010586EA3C
:10014000010685FA47F5A3FA87F586FA47F6A5FA78
:1001500087F68EB9EED1F0BC01F0FF0102F0070284
:1001600032B110F8013B013A83EA010313B1F8D12F
:100170000020704701387047002D06BF3546033810
:10018000073815F0010F07D1013015F4807F02BF49
:10019000013015F4C03F0130F0BC0138704700BF9A
:1001A00081F0004102E000BF83F0004330B54FEA28
:1001B00041044FEA430594EA050F08BF90EA020F95
:1001C0001FBF54EA000C55EA020C7FEA645C7FEA28
:1001D000655C00F0E2804FEA5454D4EB5555B8BF4B
:1001E0006D420CDD2C4480EA020281EA030382EABC
:1001F000000083EA010180EA020281EA0303362D4E
:1002000088BF30BD11F0004F4FEA01314FF4801C20
:100210004CEA113102D0404261EB410113F0004F32
:100220004FEA03334CEA133302D0524263EB4303E9
:1002300094EA050F00F0A780A4F10104D5F1200E87
:100240000DDB02FA0EFC22FA05F2801841F10001E2
:1002500003FA0EF2801843FA05F359410EE0A5F1B6
:1002600020050EF1200E012A03FA0EFC28BF4CF0E7
:10027000020C43FA05F3C01851EBE37101F000459D
:1002800007D54FF0000EDCF1000C7EEB00006EEBAA
:100290000101B1F5801F1BD3B1F5001F0CD3490834
:1002A0005FEA30004FEA3C0C04F101044FEA44528B
:1002B00012F5800F80F09A80BCF1004F08BF5FEA12
:1002C000500C50F1000041EB045141EA050130BDF2
:1002D0005FEA4C0C404141EB0101013C28BFB1F504
:1002E000801FE9D291F0000F04BF01460020B1FA4F
:1002F00081F308BF2033A3F10B03B3F120020CDA22
:100300000C3208DD02F1140CC2F10C0201FA0CF0FF
:1003100021FA02F10CE002F11402D8BFC2F1200C64
:1003200001FA02F120FA0CFCDCBF41EA0C0190401A
:10033000E41AA2BF01EB0451294330BD6FEA040463
:100340001F3C1CDA0C340EDC04F11404C4F120024E
:1003500020FA04F001FA02F340EA030021FA04F360
:1003600045EA030130BDC4F10C04C4F1200220FAB7
:1003700002F001FA04F340EA0300294630BD21FAF5
:1003800004F0294630BD94F0000F83F4801306BFBB
:1003900081F480110134013D4EE77FEA645C18BFAF
:1003A0007FEA655C29D094EA050F08BF90EA020F46
:1003B00005D054EA000C04BF1946104630BD91EA3E
:1003C000030F1EBF0021002030BD5FEA545C05D141
:1003D0004000494128BF41F0004130BD14F5800480
:1003E0003CBF01F5801130BD01F0004545F0FE41F4
:1003F00041F470014FF0000030BD7FEA645C1ABF29
:10040000194610467FEA655C1CBF0B46024650EA5F
:10041000013406BF52EA033591EA030F41F400218B
:1004200030BD00BF90F0000F04BF0021704730B511
:100430004FF4806404F132044FF000054FF00001E6
:1004400050E700BF90F0000F04BF0021704730B5A7
:100450004FF4806404F1320410F0004548BF40427C
:100460004FF000013EE700BF42004FEAE2014FEAD1
:1004700031014FEA02701FBF12F07F4393F07F4FAC
:1004800081F06051704732F07F4208BF704793F0AF
:100490007F4F04BF41F40021704730B54FF46074C2
:1004A00001F0004521F000411CE700BF50EA0102C5
:1004B00008BF704730B54FF000050AE050EA01026E
:1004C00008BF704730B511F0004502D5404261EBDE
:1004D00041014FF4806404F132045FEA915C3FF41F
:1004E000D8AE4FF003025FEADC0C18BF03325FEABC
:1004F000DC0C18BF033202EBDC02C2F1200300FA6D
:1005000003FC20FA02F001FA03FE40EA0E0021FA91
:1005100002F11444BDE600BF70B54FF0FF0C4CF47F
:10052000E06C1CEA11541DBF1CEA135594EA0C0F31
:1005300095EA0C0F00F0DEF82C4481EA030621EA6C
:100540004C5123EA4C5350EA013518BF52EA0335A7
:1005500041F4801143F4801338D0A0FB02CE4FF059
:100560000005E1FB02E506F00042E0FB03E54FF089
:100570000006E1FB03569CF0000F18BF4EF0010E81
:10058000A4F1FF04B6F5007F64F5407404D25FEA7D
:100590004E0E6D4146EB060642EAC62141EA555130
:1005A0004FEAC52040EA5E504FEACE2EB4F1FD0C72
:1005B00088BFBCF5E06F1ED8BEF1004F08BF5FEAF0
:1005C000500E50F1000041EB045170BD06F00046A2
:1005D00046EA010140EA020081EA0301B4EB5C044F
:1005E000C2BFD4EB0C0541EA045170BD41F4801147
:1005F0004FF0000E013C00F3AB8014F1360FDEBF6C
:10060000002001F0004170BDC4F10004203C35DA47
:100610000C341BDC04F11404C4F1200500FA05F3CA
:1006200020FA04F001FA05F240EA020001F000426B
:1006300021F0004110EBD37021FA04F642EB0601E1
:100640005EEA430E08BF20EAD37070BDC4F10C040B
:10065000C4F1200500FA04F320FA05F001FA04F2CF
:1006600040EA020001F0004110EBD37041F10001BB
:100670005EEA430E08BF20EAD37070BDC4F12005C6
:1006800000FA05F24EEA020E20FA04F301FA05F22E
:1006900043EA020321FA04F001F0004121FA04F2D6
:1006A00020EA020000EBD3705EEA430E08BF20EAA6
:1006B000D37070BD94F0000F0FD101F000464000E0
:1006C00041EB010111F4801F08BF013CF7D041EA62
:1006D000060195F0000F18BF704703F00046520066
:1006E00043EB030313F4801F08BF013DF7D043EA37
:1006F0000603704794EA0C0F0CEA135518BF95EAED
:100700000C0F0CD050EA410618BF52EA4306D1D173
:1007100081EA030101F000414FF0000070BD50EA92
:10072000410606BF1046194652EA430619D094EA1C
:100730000C0F02D150EA013613D195EA0C0F05D106
:1007400052EA03361CBF104619460AD181EA03015A
:1007500001F0004141F0FE4141F470014FF0000012
:1007600070BD41F0FE4141F4780170BD70B54FF0AD
:10077000FF0C4CF4E06C1CEA11541DBF1CEA13552D
:1007800094EA0C0F95EA0C0F00F0A7F8A4EB05040F
:1007900081EA030E52EA03354FEA013100F0888006
:1007A0004FEA03334FF0805545EA131343EA1263CF
:1007B0004FEA022245EA111545EA10654FEA002684
:1007C0000EF000419D4208BF964244F1FD0404F53D
:1007D000407402D25B084FEA3202B61A65EB030599
:1007E0005B084FEA32024FF480104FF4002CB6EB56
:1007F000020E75EB030E22BFB61A754640EA0C00D6
:100800005B084FEA3202B6EB020E75EB030E22BF15
:10081000B61A754640EA5C005B084FEA3202B6EB56
:10082000020E75EB030E22BFB61A754640EA9C0015
:100830005B084FEA3202B6EB020E75EB030E22BFE5
:10084000B61A754640EADC0055EA060E18D04FEAA3
:10085000051545EA16754FEA06164FEAC30343EA43
:1008600052734FEAC2025FEA1C1CC0D111F4801F10
:100870000BD141EA00014FF000004FF0004CB6E709
:1008800011F4801F04BF01430020B4F1FD0C88BFA8
:10089000BCF5E06F3FF6AFAEB5EB030C04BFB6EBB3
:1008A000020C5FEA500C50F1000041EB045170BDA6
:1008B0000EF0004E4EEA113114EB5C04C2BFD4EBD3
:1008C0000C0541EA045170BD41F480114FF0000E57
:1008D000013C90E645EA060E8DE60CEA135594EAD3
:1008E0000C0F08BF95EA0C0F3FF43BAF94EA0C0FD6
:1008F0000AD150EA01347FF434AF95EA0C0F7FF44B
:1009000025AF104619462CE795EA0C0F06D152EA9E
:1009100003353FF4FDAE1046194622E750EA410682
:1009200018BF52EA43067FF4C5AE50EA41047FF493
:100930000DAF52EA43057FF4EBAE12E77BB972B913
:100940000029BEBF00204FF0004106E008BF00288C
:100950001CBF6FF000414FF0FF3000F057B8ADF111
:10096000080C6DE904CE002909DB002B1ADB04F02A
:10097000C7FFDDF804E0DDE9022304B07047404220
:1009800061EB4101002B1BDB04F0BAFFDDF804E052
:10099000DDE9022304B0404261EB4101524263EBC6
:1009A00043037047524263EB430304F0A9FFDDF8B1
:1009B00004E0DDE9022304B0404261EB41017047ED
:1009C000524263EB430304F09BFFDDF804E0DDE9F2
:1009D000022304B0524263EB4303704753B94AB950
:1009E000002908BF00281CBF4FF0FF314FF0FF3037
:1009F00000F00CB8ADF1080C6DE904CE04F080FFF6
:100A0000DDF804E0DDE9022304B07047704700BF61
:100A100070B505F062FC134C6FF0270528B905F09E
:100A200072FC10B905F079FC20B10F486060657068
:100A3000082010E005F026FC40B905F02DFC28B98F
:100A400005F041FC10B905F052FC30B106483130D8
:100A5000606065700420A07070BDE821742002F011
:100A600057FF000000000020E4650000074991F9ED
:100A70000220904203DA91F90120904201DC1046F5
:100A800070474968801A085670470000000000202F
:100A90002DE9F0411C4690460D4606466FF01507BD
:100AA000042804D81CB105F092F8A84202D83846B0
:100AB000BDE8F0810548424650F8260018B140577D
:100AC000824200DD024622700020F1E72409002066
:100AD000002819D003781349134A13B1012B0ED003
:100AE00011E00379012B00D06BB943790BB1012BD5
:100AF00009D18368643B8B4205D2C0680EE003795C
:100B0000012B02D00BB10020704743790BB1012BB0
:100B1000F9D1C368643B8B42F5D280689042F2D829
:100B2000012070473D860100FF3F420F10B5054C84
:100B3000206810B1804700202060BDE8104001F01F
:100B4000DDBC0000080000202DE9F0410E46050044
:100B500004D000F047F8074600240BE06FF01500C2
:100B6000BDE8F081204600F043F890F8260030B14F
:100B7000641CE4B2BC42F5D36FF00B00F0E72746EB
:100B8000FF2CF9D0204600F033F8044605F0EBF9CD
:100B900084F828702146084801F088FC84F8270072
:100BA000202806D00120256284F826003770002016
:100BB000D6E76FF02200D3E7915C000010B5820702
:100BC00002D06FF00D0010BD054A1170506028B1C1
:100BD00001EB41010A01002105F023FC002010BDBA
:100BE0000C00002001480078704700000C00002035
:100BF00005490A78904201D300207047496800EB0C
:100C0000400001EB001070470C0000200E4910B5A9
:100C100091F82D00202812D091F82D00A1F58062C6
:100C2000C0EBC00002EB800091F82D104068C1EBD2
:100C3000C10152F82120BDE810400421104740F6C0
:100C40008701702002F064FE380D002070B5054663
:100C5000202A28D019481A4C00EB831C03EB4303CD
:100C60000CEB42002344202922D00CEB41014078B8
:100C70004C784870204601460CEB410091420570CB
:100C80004078F8D193F82220202A1ABF0CEB4202B8
:100C9000547083F8214020220CEB410C8CF8012089
:100CA00083F8221070BD40F29221702002F030FED5
:100CB00093F82040407883F82000DBE7B80C002050
:100CC000380D00202DE9FF4F85B015460C4601F088
:100CD0009FFD284420F07F4102912068401A0002C5
:100CE000C11700EB11600012002800F3F080DDF85E
:100CF0002080CA4808EB48010844039090F820502F
:100D00002020C74EEA460DF104098DF80000202D81
:100D10001CBFC44800EB881B39D000BFC5EBC50021
:100D200006EB800000F10801C0682768381A00024D
:100D3000C21700EB1260001229D4E08900B3C88901
:100D4000F0B90868049002F05DFCB0F5C67F08BFFA
:100D50000D200BD0A0F54070563808BF1C2005D0E0
:100D6000A0F500709F3814BF00203220411C049869
:100D7000381A0002C21700EB12600012884206DB2C
:100D80000BEB45008AF800504578202DC6D19AF823
:100D9000000089F80000202D1CBFA24800EB881B32
:100DA00000F03881C5EBC50006EB80076068D7F816
:100DB000088007F10801A8EB00000002C21700EB51
:100DC0001260001227D4C889002800F02381E0892E
:100DD000002840F01F81D4F800A002F013FCB0F509
:100DE000C67F08BF0D200BD0A0F54070563808BF55
:100DF0001C2005D0A0F500709F3814BF00203220C1
:100E0000411CA8EB0A000002C21700EB126000129E
:100E1000884280F2FF8089F80050397E207C814230
:100E200006D90BEB45004578202DBBD100F0F2B878
:100E30009DF80400C0EBC00006EB8000C18AC568C5
:100E4000E1BBE189D1B3876802F0DCFBB0F5C67F76
:100E500008BF0D200BD0A0F54070563808BF1C20ED
:100E600005D0A0F500709F3814BF00203220411C2F
:100E7000E81B0002C21700EB1260001288421DDA64
:100E800002F0C0FBB0F5C67F08BF0D200BD0A0F567
:100E90004070563808BF1C2005D0A0F500709F3860
:100EA00014BF002032209DF80410401CC1EBC1018A
:100EB00006EB81018968084420F07F450298281AD2
:100EC0000002C11700EB11600012002803DD09B019
:100ED0000020BDE8F08FD4E90010401A284425F026
:100EE0007F4120F07F40C4E90010089804900398E7
:100EF000EA460DF1040890F8205020208DF80000FB
:100F0000202D3CD04748049900EB811BC5EBC50060
:100F100006EB800000F10801C0682768381A00025B
:100F2000C21700EB1260001229D4E08900B3C8890F
:100F3000F0B9D1F8009002F065FBB0F5C67F08BFAC
:100F40000D200BD0A0F54070563808BF1C2005D0EE
:100F5000A0F500709F3814BF00203220411CA7EB81
:100F600009000002C21700EB12600012884206DB83
:100F70000BEB45008AF800504578202DC6D19AF831
:100F8000000088F800000498202D1CBF254901EBC3
:100F9000801B3FD0C5EBC50006EB80076168D7F822
:100FA000089007F10800A9EB01010902CA1701EB3B
:100FB0001261091222D4C08960B3E08950BBD4F811
:100FC00000A002F01FFBB0F5C67F08BF0D200BD0BC
:100FD000A0F54070563808BF1C2005D0A0F5007061
:100FE0009F3814BF00203220411CA9EB0A000002E8
:100FF000C21700EB1260001288420BDA88F800502A
:10100000387E217C88427FF613AF0BEB4500457894
:10101000202DBFD109B00120BDE8F08F380D002090
:1010200038090020B80C00202DE9F84F0F4606467D
:1010300001EB47004B4999460844924690F82040FE
:1010400020201070A1F58068202C1CBF464800EBC2
:10105000871B38D0C4EBC40008EB800000F1080106
:10106000C0683568281A0002C21700EB126000122F
:1010700029D4F08900B3C889F0B90868009002F05B
:10108000C1FAB0F5C67F08BF0D200BD0A0F54070A7
:10109000563808BF1C2005D0A0F500709F3814BF3B
:1010A00000203220411C0098281A0002C21700EBD1
:1010B00012600012884206DB0BEB44008AF8004005
:1010C0004478202CC6D19AF8000089F80000202C22
:1010D0001CBF254800EB871A40D000BFC4EBC400FA
:1010E00008EB80077068BD6807F10801281A000244
:1010F000C21700EB1260001222D4C88970B3F089C5
:1011000060BBD6F800B002F07DFAB0F5C67F08BF2C
:101110000D200BD0A0F54070563808BF1C2005D01C
:10112000A0F500709F3814BF00203220411CA5EBB1
:101130000B000002C21700EB1260001288420DDAA9
:1011400089F80040387E317C884202D80020BDE812
:10115000F88F0AEB44004478202CBFD10120BDE871
:10116000F88F0000380D0020B80C00202DE9F04168
:1011700082B0054614468846D08901AA694601F026
:1011800063FB02F071F801F043FB0746204890F83A
:101190002D10202904D0C068401D20F07F4124E09C
:1011A000E08905F10906B0B102F03AFB98B902F006
:1011B00029FAB0F5C67F08BF0D200BD0A0F540700E
:1011C000563808BF1C2005D0A0F500709F3814BF0A
:1011D000002032200644B8F1000F04D10098874265
:1011E00084BF381A064426F07F41D4E90020801AD3
:1011F000084420F07F40C4E90010A94224BF02B097
:10120000BDE8F081A068401CA06002B0BDE8F0819C
:10121000380D00202DE9F04F97B017468B46054654
:1012200001F0A4FD044602F01FF80646BBF1010FD1
:1012300018BFBBF1020F05D040F65D114FF07000F2
:1012400002F066FBF74901200860F74989680860E9
:1012500000208DF84E000C90401E0D90F348C7EB17
:10126000C70100EB810C0CF1080C0DF138089CE86B
:101270000F1088E80F100EA800F0C2FB0790EC4892
:10128000BDF84680808BADF84C00B8F1000F04BF6C
:10129000002006900BD001200690E54890F82A0027
:1012A00028B902F0BDFA002808BF012700D00027A6
:1012B00002F0A8F9B0F5C67F08BF0D200BD0A0F54D
:1012C0004070563808BF1C2005D0A0F500709F382C
:1012D00014BF002032204FF00009CA460B9046454B
:1012E00038D90799DFF84C936FEA060C6B4616AABB
:1012F00001EB0C00494504D940F26F51702002F017
:1013000007FBCD498C4504DD4FF4AE61702002F03F
:10131000FFFACA498C4504DA40F27151702002F09C
:10132000F7FAC7498142DCBF00F5F700A0F1F85099
:1013300005DD0028BCBFA0F5F70000F1F850194604
:1013400001F082FA00980E9920F07F400090081A70
:1013500020F07F49002F18BFDDF82CA005D19DF8A3
:101360004C00002818BF4FF0020AB4F1807F08D06B
:101370000E98001B0002C11700EB1160001201283B
:1013800001DA03200DE057B1A94890F82B0030B1E5
:101390009DF84C0010F1000A18BF4FF0020A2546D4
:1013A000002082440E98A0EB090020F07F42501EDE
:1013B00020F07F40411B0902CB1701EB136109129A
:1013C000514504DBB9F1000F18BF0E922DE0B9F1C1
:1013D000000F05D09DF84D0020B901F03BFF08B18A
:1013E000AFB90CE02FB99DF84C00002818BFAAF146
:1013F000020A4FF000098DF84C904E4607E09DF828
:101400004C0020B100208DF84C00AAF1020A0E9881
:10141000A0EB0900401E20F07F40411B0902CA17C3
:1014200001EB1261091251457EDB149705464FF01E
:101430000009069F01F072FB281A0002C11700EB99
:1014400011604FEA202A02F0DDF8B0F5C67F08BF30
:101450000D200BD0A0F54070563808BF1C2005D0D9
:10146000A0F500709F3814BF002032200B30824559
:1014700020DABBF1010F02D0149840B112E0B4F1B0
:10148000807F1CD140F6DE01702002F041FAB4F1F9
:10149000807F07D0601B0002C11700EB11600012B3
:1014A000042804DD2C46204601F05EFB07E00028FE
:1014B00063DC04E02C46204601F056FBB946B4F14B
:1014C000807F55D00E980F9A001B121B20F07F4092
:1014D00022F07F42012850D3B0F5000F98BFB2F53B
:1014E000000F4AD8204604F0E0FD0799524A0D1A31
:1014F0004FF0000AAA1A7AF1000218D34E4B421A92
:10150000D31A7AF1000312D34A4BAB423EBFC0F567
:10151000902000F1F450451809D3934231D2C1F51F
:10152000902101F1F45100E027E008444542404F8A
:10153000B87F58B3BBF1010F05D0022001F050FD78
:10154000012001F04DFDB0452CD2A5EB06014FF076
:10155000020001F08FFC90B3B8F1000F1CBFA5EBA7
:101560000801012034D000BF01F084FC38B32FE023
:1015700040F6F111702002F0CBF917B00020BDE861
:10158000F08F40F6C221702002F0C2F9B04534BF9E
:10159000304640461E30A842CCDB40F60521702084
:1015A00002F0B6F90CD9A5EB0801012001F062FCAC
:1015B00028B1002E1CBFA91B022009D0D4E730E0BF
:1015C00056EA080004D040F64111702002F0A0F95C
:1015D0002946002001F04EFC18B306980126002889
:1015E00004BF97F82B00002802D0B9F1000F33D0C8
:1015F00097F82A0018B102F00BF887F82AA0B9F181
:10160000000F2CD00B98201A20F07F41052001F00C
:1016100031FCE0B397F82B00002808BF87F82B6057
:1016200025E00FE0080500401400002038090020E4
:10163000380D0020FF7F841E0040420F00C0BDF027
:101640000080841E022001F0CBFC012001F0C8FCC8
:1016500017B00020BDE8F08F97F82A0090B197F8F6
:101660002B0020B1052001F0BBFC87F82BA0A5EBD7
:101670000800A0F1190100290FDC40F62E2170208E
:1016800002F046F901F0E0FF87F82A60B7E7FFE7CC
:1016900040F2F221702002F03BF9032001F0EAFB56
:1016A000B8B10E488068C0F800A00D48C0F800A08E
:1016B0000DF1300898E87F1038607960BA60FB60FF
:1016C0003C617D61BE61C7F81CC017B00120BDE858
:1016D000F08F40F63621702002F01AF91400002035
:1016E000080500402DE9F05F064608789074C87A36
:1016F0005074887A10740889D081DFF898817068F6
:101700009A46A0FB087914460D46306804F0CDFCDB
:10171000C11928784FEA680C49F10002A8F1010EBE
:10172000CCF1000B68B1E089677CC043D5F8049028
:1017300004F10C0260455FDD4FF4AE61702002F0F1
:10174000E7F8DFF85491D5E9040311EB090A42F1F7
:101750000009B0EB0A0A73EB090945D2411A73EB91
:10176000020141D3C71B7068A060474505D3401CE8
:10177000A7F1F457A7F59027A060E0896D68C143F1
:10178000667C781804F10C02774504D940F26F5159
:10179000702002F0BDF86145CEDC59452FDB804555
:1017A000DCBF00F5F700A0F1F85005DD0028BCBF54
:1017B000A0F5F70000F1F850214601F045F8206847
:1017C00020F07F417819401C2160002E08BF7A303C
:1017D00003D0012E08BF483034D101F019F820F0B1
:1017E0007F406060BDE8F09F3068401E20F07F4081
:1017F000206000F57A70F4E70146584504DA40F2BB
:101800007151702002F084F88045DCBFA1F1F450E2
:10181000A0F5902005DD0028BCBF01F1F45000F5D3
:101820009020214601F010F82068002F20F07F4121
:1018300009F10100216008BF7A3008D0012F08BFEC
:10184000483004D040F22461702002F061F800F0CA
:10185000DFFF20F07F4161607068A06000212246B8
:101860003068FFF783FC3268534621462869FFF74A
:1018700029FA002818BFBDE8F09FD4E9002130689C
:10188000891A20F07F42084420F07F40C4E90020FC
:10189000BDE8F09F0080841E0040420F70B51E4DD1
:1018A00095F82D00202818BF70BD95F82C2002EB6C
:1018B0004200284490F82040202C27D0174B03EBFF
:1018C000821101EB4401497880F82010FF2085F84F
:1018D000290085F82D402146022000F0CBF8002099
:1018E00085F82800A8770E49C4EBC40001EB8000FE
:1018F000007E002808BF02F087FB002009494968E4
:10190000002908BF70BDBDE8704008474FF44B7117
:10191000702001F0FDFF0000380D0020B80C002001
:1019200038090020140000202DE9F05FDFF8C080A6
:1019300098F82C5005EB4500404490F82140202CAD
:1019400008BFBDE8F09FDFF8ACB0DFF8ACA0AAF5A7
:1019500060790AEB8517072617F8140001280ED0C6
:10196000042808BF02260AD005280CBF0326062833
:1019700005D040F6A8014FF0700001F0C9FFBBF19F
:10198000000F18BFAFF30080EFF3108072B607EBC3
:1019900044014A7805EB4501414481F8212091F842
:1019A0002220A24204BF202281F82220C0B12A4670
:1019B0002146012000F05EF8C4EBC40109EB810070
:1019C00059F8212040683146904798F82C5005EB93
:1019D0004500404490F82140202CBAD1BDE8F09F4A
:1019E0000648002818BFAFF3008062B6DFE70000AA
:1019F000380D002000000000B80C0020000000009E
:101A000010B50446006804F050FB0246E089217BD3
:101A1000144B0844411C50189A4204D940F26F51AB
:101A2000702001F075FF104A914204DD4FF4AE6161
:101A3000702001F06DFF0D4A914204DA40F27151BD
:101A4000702001F065FF0A498142DEBF00F5F70012
:101A5000A0F1F85010BD0028BCBFA0F5F70000F1C0
:101A6000F85010BDFF7F841E0040420F00C0BDF043
:101A70000080841EDFF858C010B500230CEB821CD8
:101A800007281FD2DFE800F005050505040404005F
:101A900001230CF81100002B08BF10BD02EB42021D
:101AA0000C48024492F8220020280EBF82F8211030
:101AB0000CEB4000417020200CEB4103587082F881
:101AC000221010BD4FF41A71702001F021FF0000A8
:101AD000B80C0020380D00202DE9F74F1746DFF82D
:101AE00058A102EB47005044884690F82040012955
:101AF000254618BFB8F1020F05D040F66C214FF013
:101B0000700001F005FF4FF0000B202D44D09AF833
:101B10001E000026002808BF022600F0FFFF474BEA
:101B2000C4EBC40103EB81018A68C968121A091A5F
:101B300022F07F4221F07F41964299BFB2F5000F1B
:101B4000B1F5000F3E4A02EB871923D9224609EB73
:101B500042014C78202C15D0C4EBC40103EB810C5E
:101B6000DCF80810DCF80CC0091A21F07F41ACEB5E
:101B7000000C2CF07F4C8E429CBFB1F5000FBCF5E1
:101B8000000FE3D8202A05D03B4620210420FFF790
:101B90005DF80446AC420FD19AF82E0020280FD0F1
:101BA0000099DAF80800891C081A0002C11700EB36
:101BB00011600012002803DD03B00020BDE8F08FA3
:101BC000202D16D02A4641460098FFF723FB002817
:101BD0001FBF8AF82E50022003B0BDE8F08F3B46AD
:101BE0002A4620210420FFF731F803B00020BDE889
:101BF000F08F9AF82A0018B101F00AFD8AF82AB08D
:101C00009AF82B0020B1052001F0EAF98AF82BB0F0
:101C1000042001F0E5F901F053FA20208AF82E00A3
:101C200008488068C0F800B00748C0F800B003B0AA
:101C30000120BDE8F08F0000380D00203809002099
:101C4000B80C002014000020080500402DE9F04FDA
:101C5000694E07468DB096F82D008846202855D04D
:101C600096F82D0006F10804C0EBC000A6F58069C7
:101C700009EB800A20208DF8200096F82C000AAA93
:101C800000EB4000304409A990F82050F068029021
:101C90003068384400F0D8FDDAF80C000999652F57
:101CA000084438D3554A0021D21B71EB010232D3CC
:101CB0002268821A22F07F42B2F5000F2BD820F062
:101CC0007F406060304684F8108090F82C000DF161
:101CD000200A202D1CBF4A4901EB801B50D000BFB9
:101CE000C5EBC50009EB80086168D8F8086008F109
:101CF0000800711A0902CA1701EB126109122DD4EA
:101D0000C08900283CD0E08948B139E04FF4336104
:101D1000702001F0FDFD0DB00120BDE8F08F2068BE
:101D20000C9001F06FFCB0F5C67F08BF0D200BD002
:101D3000A0F54070563808BF1C2005D0A0F50070F3
:101D40009F3814BF00203220411C0C98301A00022A
:101D5000C21700EB12600012884211DA8AF80050B4
:101D600098F81810207C814205D8029860600DB068
:101D70000220BDE8F08F0BEB45004578202DAFD158
:101D8000052001F02DF91C4C4FF0FF30606094F8F5
:101D90002C309DF820202021202A03D00520FEF79A
:101DA00055FF04E003EB4300204490F8200094F832
:101DB0002C20134901EB821194F82D2001EB4201F4
:101DC0004870206838442060FF2084F82900607E35
:101DD000012805D1E068401E20F07F4000F064FF3C
:101DE0009DF82000202803D00648407801F064FECA
:101DF0000DB00020BDE8F08F380D00200040420FEC
:101E0000B80C00201400002070B5244A92F82D1060
:101E100020293AD092F82D10A2F58063C1EBC101C0
:101E200003EB810C92F82C1092F82C4001EB41014D
:101E3000114491F82010A2F1800505EB84142029AB
:101E400028D0C1EBC10503EB85052D7E854284BFFB
:101E500004EB41014978F2D8C1EBC10103EB8101E8
:101E6000DCF80C0089681468081A0002C11700EB3E
:101E70001160001207D404F018F904F165018842DA
:101E800024BF001B70BD002070BD40F602317020E1
:101E900001F03EFD4FF0FF3070BD0000380D002016
:101EA000C0EBC00170B50748074A00EB810001692B
:101EB0000830A1FB0245FFF7A3FD001945F1000121
:101EC00070BD0000380900200080841EF8B56B4DFD
:101ED0006B4A05F58064012694F82A1008287CD204
:101EE000DFE800F0047097A9C741AEB319B901F05B
:101EF000ABFB84F82A60E08A10B101F091FC80B15C
:101F0000FFF7CCFCFF2084F827006168B1F1FF3FA8
:101F100003D0052000F0AEFF40B1607E012810D153
:101F200009E040F63401702001F0F2FC40F639017E
:101F3000702001F0EDFCE068401E20F07F4000F0D2
:101F4000B3FE94F82D0094F82D10C0EBC00005EB03
:101F500080004068C1EBC10155F8212001B001218A
:101F6000BDE8F040104794F82B0040B119B901F0DA
:101F70006BFB84F82A60002084F82B00F8BDFFF783
:101F80008DFC4FF0FF30606094F827008DF8000062
:101F90009DF8000088B194F82D0094F82D10C0EB46
:101FA000C00005EB80004068C1EBC10155F821205D
:101FB00001B00621BDE8F04010474FF405617020E4
:101FC00001F0A6FCFFF76AFC84F8266001F028FC0B
:101FD00020B194F82A0030B109E04AE040F65E01F1
:101FE000702001F095FC01F02FFB84F82A6094F832
:101FF0002D0094F82D10C0EBC00005EB8000406868
:10200000C1EBC10155F8212001B00021BDE8F0402D
:10201000104701F00BF9E08A10B101F001FC28B182
:1020200001F018F9002818BF6677F8BD40F668017E
:10203000702001F06DFC1348066090680660F8BDE2
:102040001078BDE8F84001F037BDFFF727FC94F8A1
:102050002D0094F82D10C0EBC00005EB8000406807
:10206000C1EBC10155F8212001B00521BDE8F040C8
:10207000104740F67B01702001F04AFC380900202F
:1020800014000020080500402DE9F34F8246EE4879
:102090008DB00068ED4DC005C00D0ED0103840B2B7
:1020A0000028B8BF00F00F0000F1E020ACBF90F8AE
:1020B000000490F8140D40090DD00E984FF0000B5D
:1020C0000078002818BF012818D040F204714FF0A2
:1020D000700001F01DFC95F82D004FF0010B202839
:1020E00007D00E98007848B14FF4E061702001F0FD
:1020F0000FFC40F2FD61702001F00AFCD44C24B1C9
:10210000002140F20770AFF300800020CDE90A0003
:10211000D049CAEBCA0001EB80004FF001090090E2
:1021200024B1002140F21270AFF30080B9F1000F2A
:102130000AD000BF95F82C604FF0000885F8298080
:10214000BBF1000F07D038E0C348002818BFAFF339
:10215000008062B6EEE73746012020EA0706BF4856
:10216000402200EB871100EB861004F0E0F824B168
:10217000002140F22F50AFF3008007EB470106EB40
:102180004600294428440A8C028491F8221080F8E1
:10219000221024B1002140F23350AFF3008024B16B
:1021A000002140F21C70AFF3008095F829008DF8F3
:1021B00018009DF818000028B2D124B1002140F287
:1021C0002670AFF3008006A800F0AEFCDDE9060142
:1021D000CDE90801334601AA08A80E99FFF782FA53
:1021E00024B1002140F22D70AFF300809B4A089982
:1021F00002EB861701A817F81A20012A18BF022A35
:1022000038D1CDF82C80019A029BA2EB010222F07A
:102210007F42A3EB010121F07F41022A60D3B2F596
:10222000000F98BFB1F5000F5AD84FF0010807AB67
:1022300006AA3146FEF7F8FE002859D09DF818107E
:102240009DF81C2033468A4256D00520FEF7FEFC3E
:1022500007EB4A0148709DF8180020281CBF07EBC7
:10226000400080F801A053D0324651465FF0030091
:10227000FFF700FC24B1002140F23270AFF3008080
:102280007748002818BFAFF30080EFF3108972B6CB
:1022900024B100214FF4E760AFF3008095F82900E6
:1022A0008DF818009DF8180000287FF439AF24B18C
:1022B00000214FF4E860AFF300809DE88F1000F13B
:1022C0000800B8F1000F80E88E1053D024B100212F
:1022D00040F24D70AFF30080BBF1000F3AD11FE028
:1022E000324651460420FFF7C5FB4FF00108C1E715
:1022F000324651460420BBE7202919BF07EB4100B5
:10230000407806EB4600284408BF90F820009FE77D
:1023100006EB4601294481F820A0CDF82C80A3E7E4
:102320000B9810F0FF0F15D095F82D00202811D133
:1023300024B1002140F25270AFF3008032460221F6
:102340000898FFF7C9FB0A9020B90E980078F0B101
:1023500001282BD024B1002140F26F70AFF3008030
:10236000FF20BBF1000F18BF85F8290027D000BF60
:102370004FF0010824B100214FF4F060AFF300806A
:102380000A98384E022823D0012829D02DE024B104
:10239000002140F25A70AFF3008095F82C2051468E
:1023A0000420FFF767FB4FF00108E3E7002C3FF440
:1023B000B7AE002140F26570AFF30080B0E695F84B
:1023C0002C200121914385F82C1085F82900CFE7B6
:1023D000A8680899401A03F068FE716821B904E002
:1023E00071684FF0FF3001B18847B9F1000F24D078
:1023F00024B100214FF4F260AFF30080B8F1000F78
:1024000011D095F82C0000EB4000284490F82100F2
:10241000202808D024B1002140F29770AFF300804B
:10242000707801F049FB24B1002140F29C70AFF3B9
:1024300000800FB04046BDE8F08F0748002818BF65
:10244000AFF3008062B6D3E704ED00E0380D002062
:10245000000000003809002000000000B80C002037
:10246000000000001400002010B5202811D20E49F1
:1024700091F82C30A1F1800202EB831C1CF8103083
:102480003BB191F82C3002EB831212F81020012A94
:1024900001D0002010BD91F82C2001460020FFF74C
:1024A000E9FA012010BD0000380D002070B50D467E
:1024B000064601F0A3F90F4890F82C20002480383C
:1024C00000EB821010F8141029B1611CCCB2202C42
:1024D000F8D3202070BD0848C4EBC40140F8216047
:1024E00000EB8100214645600120FFF7C3FA20463A
:1024F00070BD0000380D0020380900202DE9F84F8C
:1025000000F00CFB054600F0DBFD604C6068B0F1AC
:10251000FF3F1CBF4FF0FF306060A07F5C4F90B961
:10252000D4E90210401A20F07F404FF40C7103F000
:10253000EFFDE1680844281A0002C11700EB1160A2
:102540000012C00F12D0607E20B394F827008DF8DF
:1025500000009DF80000E8B100F00EFC94F828009F
:10256000F0B140F2D531702001F0D2F994F82D008D
:1025700094F82D10C0EBC00007EB80004068C1EB61
:10258000C10157F821200821904740F2BD31702049
:1025900001F0BEF9E81C20F07F4000F0E5FADDE72D
:1025A000012084F8280094F82D00202821D094F8E8
:1025B0002D90202084F82D0084F82E00002684F829
:1025C000266084F82760266000F054FE207794F897
:1025D0002C8008EB480000EB040A9AF82000202821
:1025E00012D0C0EBC00007EB8000817E012905D02E
:1025F0000AE04FF47671702001F08AF900F10802C8
:1026000001212846FEF7B2FD424601212846FFF788
:1026100063FA0700F8D01F4800EB881010F8190083
:10262000022804D1424649460620FFF723FAFF203C
:1026300084F829009AF82100DFF85C8020281CBF6C
:1026400098F8010001F038FA207F18B100F0EEFD93
:1026500026776677022F0FD0012F18BFBDE8F88FBD
:102660004FF0FF30D8F80410002908BFBDE8F88FFC
:1026700001B0BDE8F04F0847A068401B03F015FD0E
:10268000D8F804100029F3D1BDE8F88F380D0020E8
:1026900038090020B80C00201400002030B5364C5A
:1026A000054683B094F82D00202808D06068B0F16A
:1026B000FF3F09D040F6A121702001F029F94FF425
:1026C0002A61702001F024F994F82D002B49C0EB09
:1026D000C00001EB80000830FFF792F90146284A5C
:1026E0002844914204D940F26F51702001F010F952
:1026F00024498D4204DD4FF4AE61702001F008F9E9
:1027000021498D4204DA40F27151702001F000F944
:102710001E498142DCBF00F5F700A0F1F85005DD4D
:102720000028BCBFA0F5F70000F1F85001AA6946E7
:1027300000F08AF89DF804000F288CBF01200020CB
:102740000099084420F07F41616094F827008DF8DB
:1027500000009DF80000002804BF03B030BD052034
:1027600000F088FB00281CBF03B030BD40F6A82154
:10277000702001F0CDF80000380D0020380900204D
:10278000FF7F841E0040420F00C0BDF00080841E09
:1027900070B51C4C202184F8201084F8211084F896
:1027A0002210002084F82C0084F82D10421EC4E969
:1027B0000002A07784F8260084F82700207760774D
:1027C00084F82E1084F82A0084F82B00A4F18201EA
:1027D0001022887001F8040F521EFAD100F054FD47
:1027E000094D012684F82860FF202870074801F071
:1027F00045F9687001F0A0F9A86000F0CFFC84F8FA
:102800002F6070BD380D0020140000202919000031
:10281000410B48F2376251430A0C094B510202FB4B
:1028200003020848504300F586306E30400D5B428D
:1028300010FB03F3B2EB532F88BF491C08447047C9
:10284000F7C2FFFF6F0C0100430B48F2376C03FB2C
:102850000CF330B41B0CDFF844C05C0203FB0C0328
:102860000F4858434FEA505C04EB0C0043F6095400
:102870001CFB04F404F5807C43F60855A3EB5C2CA8
:102880002C440CF0FF0CB3EB542F84BF4FF0000C22
:10289000401C086082F800C030BC7047F7C2FFFFE0
:1028A0006F0C01002DE9F0413B4DD5F80403DFF832
:1028B000EC8010F4803F4FF400664FF0E0274FF0BB
:1028C000000419D036480068B0B1C5F84041C7F8D7
:1028D0008062D5F84005D8F80010401A20F07F40FB
:1028E000022802D3B0F5000F06D94FF48030C5F8A6
:1028F00008030420FFF7EAFAD5F8040310F4003FB8
:102900001AD028480068B8B1C5F84441C7F88062B9
:102910002548D0F84005D8F80010401A20F07F4034
:10292000022802D3B0F5000F06D94FF40030C5F8E5
:1029300008030520FFF7CAFAD5F8040310F4802F26
:102940001AD01A480068B8B1C5F84841C7F8806283
:102950001748D0F84005D8F80010401A20F07F4002
:10296000022802D3B0F5000F06D94FF48020C5F835
:1029700008030620FFF7AAFAD5F80401002808BFCB
:10298000BDE8F081C5F80441C7F880620948C16814
:10299000491CC160BDE8F08100B0004004B50040B2
:1029A00040B1004044B1004004B0004048B1004094
:1029B00008B00040200000202DE9F041384D287873
:1029C000042868D0A81C0122017859B1012908BF48
:1029D0006A7002D06978002958D0022101704078CD
:1029E00000F0FEFA2F4CD4F804034FF0000810F466
:1029F000002F4FF480774FF0E0260AD02A48006875
:102A000038B1032000F0ECFAC6F880720320FFF71B
:102A10005DFAD4F8040310F4802F0AD0234800682C
:102A200038B1022000F0DCFAC6F880720220FFF70D
:102A30004DFAD4F8040310F4003F0AD01C48006893
:102A400038B1012000F0CCFAC6F880720120FFF7FF
:102A50003DFAD4F8040310F4803F08BFBDE8F081CC
:102A600014480068002808BFBDE8F081002000F08D
:102A7000B7FAC6F8807204202870C5F80480C4F83C
:102A80000082BDE8F0410020FFF720BA40F29F41EC
:102A90006C2000F03DFFBDE8F0410720FFF716BABB
:102AA00020000020008000404C8100404881004010
:102AB0004481004040810040012211024FF0E02398
:102AC0000020C3F8801103F5C073BFF34F8FBFF32D
:102AD0006F8FC3F800110E4941F8042F431EC1F84F
:102AE0000433C1F83C05C1F83C010A4BC3F840056A
:102AF000C1F840011B1DC3F84005C1F844011B1D6E
:102B0000C3F84005C1F84801CA60034948707047DE
:102B10000080004004800040200000200148006840
:102B20007047000004B5004030B4EFF3108C72B66B
:102B300000250B4B0B4A00BFD3F80415D3F8044112
:102B40002CB1D168491CD160C3F80451F4E7D268B4
:102B5000BCF1000F00D162B6C0E9001230BC704772
:102B600000B00040200000202DE9F047464E054609
:102B7000B71E3378B968012B04BFA942BDE8F087BE
:102B80004FF04040414A1060424A4148C2F80803B1
:102B900002F1040C4FF00004002B62D03E48C2F852
:102BA0004803CCF84045C2F8444100BFD2F8480180
:102BB0004FF0E0294FF00108002801BFD2F80401CE
:102BC00000284FF40060C9F880024FF48030C2F84A
:102BD0000803C2F84803C2F840413048D0F800C0AA
:102BE000A5EB0C0C2CF07F4CBCF1020F44D3BCF5D0
:102BF000000F41D8C2F840554FF4803CC2F844C39E
:102C00002BB102688A1A22F07F42022AF9D3C7F850
:102C100004803C70FFF750FF2148D0F8041564F39E
:102C20000101C0F80415D0F80825022161F3010262
:102C3000C0F808250421C0F81015C0F80C80796888
:102C4000C0F800128015C9F88002C9F800011549C2
:102C5000C00508600420BD60707086F80080BDE883
:102C6000F087C2F84803C2F84045C2F84041CCF8AA
:102C70004045C2F8444199E70020C2F8400540F2BF
:102C800093216C2000F044FE2200002008F5014052
:102C9000FDFFFBFF00B00040FDFFFAFF04B5004060
:102CA0000080004004F5014070B52A4CA1688142C3
:102CB00014BF01220022DFF8A0C09CF80050022DB2
:102CC00002D0002A34D002E0002A08BF70BD62782A
:102CD0009AB3224B4FF080421A60214B9213C3F8F3
:102CE0000823C3F848230022C3F840211D4A166870
:102CF000861B26F07F46022E24D3B6F5000F21D87E
:102D0000C3F840054FF48036C3F844632DB113680F
:102D1000CB1A23F07F43022BF9D3134B02214A072E
:102D20001A60A06004208CF801008CF8001070BDBF
:102D300040F2A1216C2000F0EBFD40F2A5216C20B7
:102D400000F0E6FD0020C3F8400540F2B1216C2000
:102D500000F0DEFD200000202200002008F50140E8
:102D600000B0004004B5004004F50140014880680F
:102D700070470000200000202DE9F0413648354A18
:102D8000C0F80823DFF8D4C0031D00219CF80040E0
:102D900084B1334AC0F84823C3F84015C0F8441141
:102DA000D0F848210123002A04BFD0F804010028EC
:102DB00011D10AE0C0F84823C0F84015C0F840110E
:102DC000C3F84015C0F84411EAE74FF0E0224FF491
:102DD0000060C2F88002022C04D040F2BD216C20B9
:102DE00000F096FD1F4E30681F4CC01C20F07F4045
:102DF000A2681E4D90420BD03768D71B27F07F4743
:102E0000042F05D3B7F5000F02D8FFF7ADFE1BE086
:102E10003068101A20F07F40022813D3B0F5000F5D
:102E200010D8134A4FF080401060636021706B60CF
:102E3000EB604000111F086004208CF801008CF842
:102E4000003001E0636021706068C5F80002BDE8F1
:102E5000F0810000FDFFFBFF00B0004022000020D9
:102E6000FDFFFAFF04B50040200000200080004074
:102E700008F501402DE9F041544A0025012492F85B
:102E800000C053784FF4A07607287DD2DFE800F029
:102E900004040404585858004D4A9768B7F1807FDD
:102EA00004BF5278002A03D0BCF1020F05D026E0FF
:102EB00040F24D316C2000F02BFD1A1FD2B206EB10
:102EC000820202F1804606F530460022BCF1010F75
:102ED00003D0BCF1020F08D00EE0042B24BF3768EA
:102EE000002F08BF4FF0004206E0042B24BF3768D4
:102EF000002F08BF42F0804212F0804FE5D1DFF88A
:102F0000D4C000F1100204FA02F2CCF808234FF00A
:102F1000400303EB8003DBB263441C600CEB8000D6
:102F2000D0F84035A1EB030323F07F43032B26BFEA
:102F3000C0F84015CCF80423C0F8405537D23CE027
:102F4000BCF1000F06D0834204D140F26D316C20F9
:102F500000F0DEFC021FD3B2032B04D34FF4E47164
:102F60006C2000F0D5FCDFF870C003F1100204FA09
:102F700002F2CCF80823CCF8482306EB83034CF884
:102F80000350164B1B6800E01AE0001FCB1A23F019
:102F90007F43C0B20CEB8000022B0BD3B3F5000FC4
:102FA00008D8C0F84015CCF80423CCF844230120FD
:102FB000BDE8F0810021C0F840150020BDE8F08197
:102FC00040F271316C2000F0A3FC000022000020D0
:102FD000200000200080004000B0004004B5004008
:102FE0002DE9F843012600274FF4A078072851D295
:102FF000DFE800F0040404041919190000F11001BD
:1030000006FA01F22649C1F8082301EB80030022E9
:10301000C3F8402508EB80028F50224951F8200068
:103020000090BDE8F883204D011FCCB2297879B11A
:103030006A7882420CD11D4A4FF04040106001294D
:1030400008BFFFF739FD2F7019494FF08070886075
:10305000184904F1100006FA00F0C1F80803C1F89D
:103060004803A0000844D0F84005134A1268801AAB
:1030700020F07F40022807D301EB84020020C2F831
:10308000400508EB84000F500C4850F824000090D5
:10309000BDE8F88340F2F5316C2000F039FC000007
:1030A00000800040408100402200002008F50140DF
:1030B0002000002000B0004004B5004040B10040B6
:1030C0002548244AC0F808232449031D91F800C06C
:1030D0000021BCF1000F10D0214AC0F84823C3F8EA
:1030E0004015C0F8441100BFD0F84821002A04BFA1
:1030F000D0F80401002811D10AE0C0F84823C0F834
:103100004015C0F84011C3F84015C0F84411EBE772
:103110004FF0E0224FF40060C2F8800211484FF0F7
:10312000FF32C0F80823C0F84015C0F8401100F184
:103130000402C2F84015C0F8441102F10402C2F8BA
:103140004015C0F8481102F10402C2F84015C0F859
:103150004C117047FDFFFBFF00B000402200002033
:10316000FDFFFAFF0080004010B507280DD2DFE810
:1031700000F00404040406060600064902E0001FED
:103180000549C0B201EB800010BD40F295316C20C2
:1031900000F0BEFB4081004040B1004070B51F48C8
:1031A000002404210470801E01708905C4608160C0
:1031B000FFF782FC01254FF0E02CEB02CCF88031C8
:1031C000BFF34F8FBFF36F8FCCF880321448456048
:1031D000856014490A68002AFCD1511EC0F8081302
:1031E000C0F84813C0F84045C0F840410E49C1F846
:1031F0004045C0F84441091DC1F84045C0F8484168
:10320000C0F80441CCF8003105604FF48271C0F879
:1032100044130221C0F8041370BD000022000020F6
:1032200000B0004004B5004004B00040084890F9E8
:1032300000000028B8BF704700F01F01012202FA09
:1032400001F14009800000F1E020C0F80012704751
:10325000840000200348007803280CBF01200020D0
:10326000704700008000002001484088704700003F
:103270008000002003480078022816BF03280120A0
:10328000002070478000002002480021017041802A
:1032900070470000800000202DE9F041164C607A54
:1032A000002827D04FF480718D05284602F054FF86
:1032B00080464FF48271284602F04EFF00260746F2
:1032C000B8F1000F09D00120C5F80803207920B11A
:1032D0002671E06908B18047E66137B1C5F804613D
:1032E0000220C5F8080300F047FA4046BDE8F04167
:1032F00000F058B8BDE8F0813000002010B502F0B1
:10330000D5FF30B902F0F3FF18B903F006F8002832
:1033100002D002490220086010BD0000340C0040B9
:1033200070B500F091F900F07BFA094C4FF0804540
:1033300030B1FFF7E3FF012028610420A07204E010
:103340000320A0720120C5F804030020E07170BDC5
:103350003000002070B5124CA079E0B1E179401E38
:10336000814218DA00F05CFA054600F045FBA179CD
:10337000012902D9E179491CE1710DB1616900E0CF
:103380002169411A022902DA11F1020F07DC0DB19D
:10339000606100E02061BDE87040FFF7C1BF70BD13
:1033A000300000202DE9F04706464FF080454FF4ED
:1033B0008671284602F0D0FE80464FF48871284678
:1033C00002F0CAFE274C8246277804F1080002F07A
:1033D00037FF10B140F2B91116E04FF0010946B1C4
:1033E000A07A032805D10420A072FFF787FFC5F853
:1033F00010900026B8F1000F18D0C5F80C61A07A23
:10340000042804D040F2CB116D2000F081FA02F0C4
:103410004DFF28B902F06BFF10B902F07EFF08B132
:10342000114806600220A07200F0F2F8BAF1000F15
:1034300008D0C5F81061A07A022801D1FFF78AFFF1
:10344000C5F814903FB12670A07A022801D1FFF789
:1034500067FF00F0DDF8BDE8F0470248083002F0F1
:1034600006BF000030000020340C00402DE9F0477A
:103470005F4C00270646A761427881780078E072A9
:103480006271A171E7714FF001084FF08045052886
:1034900025D2DFE800F0100306202200C4F81880CF
:1034A00009E000F0D1F80121284602F05AFE002878
:1034B000F9D00220A06102F080FEB0B100F0CAF99C
:1034C000217E01F0030188420FD1B07950B1022072
:1034D000C5F8040370E04748ECE74748EAE740F2E4
:1034E0003A314DE000F08AF966E0C5F80C804FF4FF
:1034F000827AC5F80471A069C5F8180502F0C2FE09
:1035000040B902F0C9FE28B902F0DDFE10B902F0A0
:10351000EEFE38B14FF08050D0F844023749C0F386
:103520004230086002F0AEFE40B902F0B5FE28B9A4
:1035300002F0C9FE10B902F0DAFE18B12F491031BD
:10354000C1F80080C5F808800220C5F80403B079EE
:1035500090BBD5F8040310F0020F0FD0DFF8A09055
:10356000D9F80010C94341F3001101F10108D9F85D
:10357000001041F01001C9F8001007E040F2FB21F3
:103580006D2000F0C5F900BF00F0ECFA5146284666
:1035900002F0E2FD0028F7D000F030F9B8F1000F9A
:1035A00005D1D9F8001021F01001C9F8001002204F
:1035B000C5F80803C5F80471A07970B1307860B916
:1035C00000F02EF9064600F017FA6FF0004116B130
:1035D000C4E9041001E0C4E904010121284602F015
:1035E000C0FD08B100F016F9A772BDE8F087000031
:1035F0003000002001000200010003003C050040F3
:1036000010ED00E00148C089704700003000002044
:1036100010B5EFF3108472B60A48417829B14178A9
:10362000491E4170417829B108E04FF48E716D2038
:1036300000F06EF9807808B900F000F9002C00D194
:1036400062B610BD3000002010B5EFF3108472B6E2
:1036500006484178491C41704078012801D102F0A8
:1036600097FD002C00D162B610BD00003000002094
:10367000054810B5C17821B100210171C170FFF773
:10368000C7FF002010BD00003000002070B50C4CBA
:10369000E17861B90125E570E061FFF7D5FF00F041
:1036A000BFF830B1E06910B180470020E061002030
:1036B00070BD4FF080402571C0F80453F7E700005B
:1036C000300000202DE9F04105006FF015003FD0DB
:1036D000297804293CD8002969783BD0002937D1C2
:1036E000A978002934D1002002F001FD002002F069
:1036F000F1FC4FF080484FF0FF31C8F80813002666
:10370000C8F80061C8F80461C8F80C61C8F8106115
:10371000144C6670A888A08102F031FD012708B121
:10372000E77067700121404602F01BFD08B100F010
:1037300071F840F2F550E0812846FFF797FE677276
:10374000002002F0C7FC4FF0E0213046C1F80071C4
:10375000BDE8F0810029FBD02029F9D8A9782129DA
:10376000C1D9F5E7300000200248807A002800D057
:103770000120704730000020F8B51F4DE87A00287E
:103780000FD1287E00F0030002F007FD002808D0CA
:10379000EFF3108172B6FFF7E7FF18B1002900D1EF
:1037A00062B6F8BD0126AE7201B962B618204FF0BC
:1037B0008044C4F80803A6614FF42070ADF80000FF
:1037C000BDF80000411EADF80010F9D20027C4F882
:1037D0000C71C4F810710848083002F044FD2F70D5
:1037E000FFF79EFD6661687900F07F00C4F8380538
:1037F0001820C4F80403F8BD3000002010B5044CB4
:10380000207E00F0030002F0C8FC0028F8D010BDB4
:103810003000002001490120087070478500002019
:103820004FF08040D0F8000118B903480078002814
:1038300000D0012070470000850000204FF080403C
:10384000012141600021C0F800110148017070475A
:10385000850000200248006800F003007047000067
:103860001C04004010B531B1012907D040F20231EB
:1038700005A000F021F8D0F8140401E0D0F8080405
:1038800000F0010010BD00006E72665F636C6F6334
:103890006B2E6800BFF34F8F05480168054A01F49D
:1038A000E06111430160BFF34F8F00BFFDE70000EF
:1038B0000CED00E00400FA0572B6034A526802B14A
:1038C0009047FFF7E7FF000050000020064810B5C2
:1038D0000021016001210160084602F085FCBDE87D
:1038E0001040012002F073BCFC1F0040074810B5D7
:1038F00001214160891EC0F808130C2002F074FCFD
:10390000BDE810400C2002F062BC000000C0004086
:103910000EB572B60F4A5568D5B1002203466E4601
:103920000A2403E0B0FBF4F0521CD2B20028F9D113
:10393000B05409E0B3FBF4F004FB1030B3FBF4F334
:10394000521ED2B23030B054002AF3D13046A847CC
:10395000FFF7A0FF500000202DE9F041184C06466B
:10396000174660780D4618B14FF0FF30BDE8F08182
:10397000FDF74EF806B9134E67602570FFF7A6FFF6
:10398000FFF7B4FF3046FFF79DFE0600EED1FEF7CD
:10399000FFFEFFF7F1FE02F0EDFA284602F017FCF9
:1039A0000120002D09DB05F01F0100FA01F16A0971
:1039B000920002F1E022C2F8001160703046D5E7B3
:1039C000500000200A620000014840787047000063
:1039D00050000020074890F90000002809DB00F0A3
:1039E0001F02012191404009800000F1E020C0F851
:1039F00000127047500000202DE9F04101264FF0E1
:103A0000E02231034FF000084046C2F88011BFF3B6
:103A10004F8FBFF36F8F164CC4F800010C2002F0DB
:103A200002FC144D2868C04340F30017286840F09A
:103A300010002860C4F8046326607F1C02E000BF09
:103A400000F090F8D4F800010028F9D01FB92868D8
:103A500020F010002860084805686660C4F8086314
:103A6000C4F800810C2002F0DEFB2846BDE8F0819E
:103A700000C0004010ED00E008C5004010B502464F
:103A800005200C4904E000BF01EBC0031B7933B1F2
:103A9000401EC0B2F8D248216920FFF739FF41F833
:103AA000302001EBC00100224A718A7101220A71A3
:103AB00010BD0000680D002010B5052801D3582165
:103AC00006E00A4901EBC0000179012903D0592120
:103AD0006920FFF71DFF41798279491CC9B28A42EA
:103AE00000D04171BDE81040FFF774BF680D0020A1
:103AF00070B505250E4E0F4C16E0217806EBC1007F
:103B00000279012A08D1427983799A4204D0427914
:103B1000827156F8310080472078401CC0B2207076
:103B2000052801D3002020706D1EEDB2E5D270BDD6
:103B3000680D00208600002000B502F0A3FB40B90C
:103B400002F0AAFB28B902F0BEFB10B902F0CFFBCD
:103B500008B1024800BD024800BD00000C0500404D
:103B600000E7014010B502F0C2FB30B3EFF3108064
:103B7000C8B1002172B6124802680368C2F300128D
:103B800043F0100303604FF0E023D3F80042D3F872
:103B900004321C4300D040BF20BF00BF00BF00BFA5
:103BA00000BF12B105E00121E4E7026822F0100233
:103BB0000260002900D062B610BD20BF10BD000019
:103BC00010ED00E0014909688968084758000020A5
:103BD0000149096809690847580000200148006840
:103BE00040680047580000200149096809680847F3
:103BF00058000020F7640000EF640000E364000058
:103C0000F3640000EB640000094810B581780429D2
:103C100008D010290AD0202908D040F2CD116B20FD
:103C2000FFF776FE1021817033F0D2FD10BD000049
:103C30005C0000200B4810B5017831B1EFF310841F
:103C400072B68178102905D008E040F21B316B2054
:103C5000FFF75EFE08218170FEF750FC002C00D1BA
:103C600062B610BD5C00002070B5124C207858B1CF
:103C7000EFF3108572B6607948B1022809D04FF48D
:103C800039716B20FFF744FE40F2D121F9E70120A2
:103C900003E0A1780020042901D0607102E0607186
:103CA00033F086FD05B962B6E078BDE87040FFF7F5
:103CB00003BF00005C0000200E4810B5017859B128
:103CC000EFF3108172B642794AB1012A09D04FF45C
:103CD00043716B20FFF71CFE4FF43F71F9E702229E
:103CE00000E00022427101B962B6C078BDE8104020
:103CF000FFF7E2BE5C00002010B5134C207810B135
:103D000040F28D211DE0002060700120A0700F485E
:103D10004FF4C851016005210181B72141810C494F
:103D200041600C48FFF7AAFEE07000210A48FEF748
:103D3000BDFB2071202802D00120207010BD4FF45F
:103D400027716B20FFF7E4FD5C00002018090020BC
:103D5000FF3F420F813E0000B13D0000114810B509
:103D60008178042901D0002010BD8079A8B1FEF728
:103D7000D5FE441C012002F0A5F9001B0002C1176A
:103D800000EB11600012002800DC00200649A0FBB7
:103D90000101C00B40EA414010BD04480168408960
:103DA000081A10BD5C00002040420F0018090020D6
:103DB00070B50E46FEF7B2FE00252E4C082E31D20D
:103DC000DFE806F030043B3B211C4C41012102207E
:103DD00000F000F9607858B10420A070264800680F
:103DE000A060A571607902283FD033F0E1FC3CE08F
:103DF0002020A070BDE87040FEF780BB40F2152186
:103E00006B20FFF785FD607800280BD0A078042890
:103E100009D04FF0E0210220C1F88001BFF34F8F9D
:103E2000BFF36F8F70BD00F073F818B11348D0F86E
:103E30004401B0B910F0FAF870BD0121022004E08D
:103E40000120A07070BD0121282000F0C3F8607827
:103E50000028F5D0BDE8704000F096B800F058F8A2
:103E600018B1BDE87040FFF7CFBEBDE8704000F06C
:103E700057B800005C0000201809002000B0004086
:103E800070B5EFF3108472B6204D00206979687127
:103E9000C1B3012906D0022918D084F310884FF449
:103EA000D77128E084F31088687810B140F25B1174
:103EB00021E00021142000F08DF801206870A8781E
:103EC000012821D1BDE8704000F05EB8697849B1A1
:103ED0006870A878082815D007DC022812D00428BA
:103EE00007D10BE04FF4B67105E0102806D020286A
:103EF00008D04FF4C4716B20FFF70AFD2020A87092
:103F0000FEF7FCFA84F3108870BD00005C0000200E
:103F100002488079012800D0002070475C00002012
:103F200070B50320FDF770FF154D2968814200D858
:103F3000084606460321FDF789FE124C012130B1E7
:103F4000012818D04FF4A7716B20FFF7E1FC286817
:103F5000B042A06806D1FEF7A1FB2868A16808441A
:103F6000A06070BD3044A060A1716989401ABDE8AD
:103F70007040FEF793BBA1716889A168081AF6E743
:103F8000180900205C00002010B5182200210F48FD
:103F900002F047FA0D48012101700021018103213F
:103FA000817200F118010A6842604968016108489D
:103FB0000221817005490079FEF766F8002804D1D6
:103FC0004FF483716B20FFF7A3FC10BD00090020A4
:103FD0005C0000200B4A10B5927812B1531E1A42B1
:103FE00001D0E02109E021B10240900608D1E5218D
:103FF00003E08243900603D1E9216B20FFF788FCA0
:1040000010BD00005C00002001490120887070474D
:104010006800002079650000B16500009B65000024
:1040200089650000956500008365000077650000E4
:1040300075650000AD650000A16500008F6500009A
:104040007D6500006F650000676500006B6500001E
:104050006165000001480068C06B00477C000020DB
:10406000014A1268126B10477C0000200149096860
:10407000896908477C000020014800680068004703
:104080007C00002001480068406900477C00002057
:10409000014A1268D26810477C000020014800687D
:1040A000006900477C000020014A126892681047AE
:1040B0007C00002001490968496A08477C0000200B
:1040C000014B1B685B6818477C00002001480078A2
:1040D00070470000870000202DE9F14F03F11C0418
:1040E00002EB840C4FEA930B8A68CB680868496836
:1040F00000F046F93CE9F0006040694072407B40C6
:104100000BF1060E4EE083EA134480EA134582EA7F
:10411000134746BA96EA3444604000F00F1684EA2A
:10412000063420F00F1684EA161054BA94EA0106F9
:10413000724002F00F1486EA043622F00F1486EA69
:1041400014124CBA6540694001F00F1485EA043539
:1041500021F00F1485EA14115CBA67407B4003F02C
:104160000F1487EA043723F00F1487EA141344BAB4
:1041700044404DBA4D4056BA56405FBA5F4087EA58
:10418000174886EA174B84EA17464FEA38488BEA05
:104190001B4485EA1B4788EA1B4580EA3440694096
:1041A00072407B4000F0703400F0803500F00F303A
:1041B00040EA440040EAD50080EA900404F0332449
:1041C00080EA8400604001F0703401F0803501F035
:1041D0000F3141EA440141EAD50181EA910404F03A
:1041E000332481EA8401614002F0703402F08035AA
:1041F00002F00F3242EA440242EAD50282EA920415
:1042000004F0332482EA8402624003F0703403F045
:10421000803503F00F3343EA440343EAD50383EACE
:10422000930404F0332483EA84036340C943DB43EB
:1042300081EA000483EA044686EA020183EA014334
:1042400082EA334583EA14435C4084EA00077FEA4C
:10425000040A8AEA024A8AEA010B87EA11488AEAD2
:10426000374A80EA060181EA1A418AEA030A04EA27
:104270000A00454088EA040707EA0B0041408AEA41
:104280000B0608EA060084EA34428AEA3A4602EA61
:10429000060358404540414087EA37438BEA3B409C
:1042A00003EA000985EA090582EA0309464006EAAD
:1042B0000906714085EA010005EA3546464006EAEE
:1042C000314181EA304181EA364606EA304686EAE3
:1042D000354634400F4086EA010508EA050886EABB
:1042E0003640024088EA020881EA314213405C40CD
:1042F00080EA020309EA030987EA0907674088EAB6
:10430000040806EA0A0601EA0B018AEA0B042540C2
:104310008AEA3A44204045408BEA3B4B02EA0B02D2
:10432000564084EA0B04234059406E40694087EAB6
:10433000364080EA384080EA060380EA104481EA89
:10434000134585EA344585EA17427D4082EA3541C6
:1043500080EA05403CE9F0006040694072407B40E3
:10436000BEF1010E3FF6CFAE20BC00F05FF8286032
:104370006960AA60EB60BDE8F08F00BF00F000BA92
:1043800080EA101404F0F01480EA0410604081EA1E
:10439000111404F0F01481EA0411614082EA12144D
:1043A00004F0F01482EA0412624083EA131404F069
:1043B000F01483EA0413634080EA102404F47F4479
:1043C00080EA0420604081EA112404F47F4481EAF9
:1043D0000421614082EA122404F47F4482EA042228
:1043E000624083EA132404F47F4483EA0423634095
:1043F00081EA500404F0553480EA4400614083EAC5
:10440000520404F0553482EA4402634082EA900484
:1044100004F0333480EA8400624083EA910404F0BB
:10442000333481EA84016340704700BF82EA90041C
:1044300004F0333480EA8400624083EA910404F09B
:10444000333481EA8401634081EA500404F0553436
:1044500080EA4400614083EA520404F0553482EA61
:104460004402634080EA102404F47F4480EA04207C
:10447000604081EA112404F47F4481EA0421614010
:1044800082EA122404F47F4482EA0422624083EA2E
:10449000132404F47F4483EA0423634080EA101465
:1044A00004F0F01480EA0410604081EA111404F072
:1044B000F01481EA0411614082EA121404F0F0144D
:1044C00082EA0412624083EA131404F0F01483EACF
:1044D00004136340704700BF2DE9F14F94464FEA43
:1044E000930B8A68CB6808684968FFF749FF0BF1AE
:1044F000060E33E083EA134480EA134582EA134749
:1045000046BA96EA3444604000F00F1684EA063456
:1045100020F00F1684EA161054BA94EA010672408D
:1045200002F00F1486EA043622F00F1486EA141201
:104530004CBA6540694001F00F1485EA043521F05A
:104540000F1485EA14115CBA67407B4003F00F1426
:1045500087EA043723F00F1487EA1413BCE8F0004D
:104560006040694072407B4000F0E03400F010355C
:1045700000F00F3040EA540040EAC50080EA9004A1
:1045800004F0332480EA8400604001F0E03401F05C
:10459000103501F00F3141EA540141EAC50181EAC9
:1045A000910404F0332481EA8401614002F0E03494
:1045B00002F0103502F00F3242EA540242EAC5021C
:1045C00082EA920404F0332482EA8402624003F017
:1045D000E03403F0103503F00F3343EA540343EAA9
:1045E000C50383EA930404F0332483EA840363401D
:1045F00081EA324787EA134581EA354690EA0604A4
:1046000084EA034B82EA1B4280EA044484EA0544BC
:1046100083EA144A85EA14448BEA044B84EA37445B
:1046200081EA0B4181EA164104EA0A00454082EA28
:1046300004082BEA080041408AEA0B0602EA060059
:1046400084EA34438AEA3A4603EA0607784045405A
:10465000414088EA38478BEA3B4007EA000985EA8F
:10466000090583EA0709464006EA0906714085EA1A
:10467000010005EA3546464006EA314181EA30410B
:1046800081EA364606EA304686EA3546344008EA8C
:10469000010886EA01052A4086EA364003405A406E
:1046A00081EA31431F407C4080EA030709EA070999
:1046B00088EA0908544088EA020806EA0A0601EA7C
:1046C0000B018AEA0B0215408AEA3A421040454043
:1046D0008BEA3B4003405E404240174079404D40EA
:1046E0004E40E443F64386EA18435D4085EA0540C0
:1046F00083EA134386EA034183EA384284EA11439A
:1047000083EA04435FEA3343BEF1010E3FF6F2AEA3
:104710001ED4BCE8F0006040694072407B4020BC81
:10472000FFF784FE28606960AA60EB60BDE8F08F47
:104730002DE9E0414FF2F00280EA1031114080EAA9
:104740000130484041088208C3084FF0000E4FE78F
:1047500000F0113001F0113102F0113203F0113389
:1047600040EA410040EA820040EAC3004FF2F00212
:1047700080EA1031114080EA01304840BDE8E08114
:104780002DE9F04F02F11C050646074600EB8508AF
:1047900051F8040B043A46F8040BF9D14FF0010C20
:1047A000FFF7C6FF5FEA302080EA0C001ECF4140D1
:1047B0004A4053405C401EC62000464517D04FEA91
:1047C0004C0C1CF4807F18BFACF1E50C2C2DE7D00D
:1047D0003C2D06D1FFF7ACFF06CF41404A4006C64C
:1047E000100006CF41404A4006C61000D8E736E91F
:1047F0000F00FFF7C5FD043D86E80F00F7D1BDE8C7
:10480000F08F00BF2DE9F00391E8F803B2E8021041
:104810005B1854EB0C04B2E802104D4156EB0C0649
:1048200092E806104F4158EB020859EB0C0980E85A
:10483000F80380410130BDE8F00370472DE9F00333
:1048400091E8F803B2E802105B1A74EB0C04B2E8CA
:1048500002108D4176EB0C0692E806108F4178EB42
:10486000020879EB0C0980E8F80380414042BDE87A
:10487000F00370472DE9F003524290E83800B1E8A8
:1048800080031740DB1918EA020854EB080419EA00
:10489000020955EB090538C090E8780091E88203D9
:1048A00011404B4117407C4118EA020855EB0805BE
:1048B00019EA020956EB090678C080410130BDE8CB
:1048C000F00370472DE9F003524290E83800B1E858
:1048D00080031740DB1B18EA020874EB080419EA8E
:1048E000020975EB090538C090E8780091E8820369
:1048F00011408B411740BC4118EA020875EB0805CE
:1049000019EA020976EB090678C080414042BDE809
:10491000F00370472DE9F00152424FF0030890E890
:10492000300091E8C000A31B1340E41AF618EB1BFB
:104930001340ED1AFF1830C0C0C1B8F10108EED124
:1049400004680E68A31B1340E41AF61804600E6096
:10495000BDE8F001704700BF00B592EC070AB1E86E
:10496000005E07EE101A56EC102A58EC117AA9FBDB
:104970000250AAFB0234E9FB6603EBFB624340EC06
:10498000145AAAFB0605ECFB6235E9FB6740E9FB1C
:104990006830EEFB6250AAFB0721EAFB6851EBFB93
:1049A000680112EE108AEBFB6632ECFB6652EAFB02
:1049B0006802EBFB681243EC154AA9FB084312EEB0
:1049C000908AE9FB6803EAFB6813EBFB6823EBFBC7
:1049D0006754EEFB660413EE108AE9FB6814EAFBE9
:1049E0006824EBFB683406EE105A17EE109A99E82B
:1049F000000CACFB076511EE909AECFB6915EEFB21
:104A00006925EAFB6935EBFB694510EE109AEAFB74
:104A10006906EBFB691612EE109AECFB6926EEFBB9
:104A20006936EAFB6946EBFB695610EE909AAAFBE1
:104A30000987EBFB692712EE909AECFB6937EEFBD6
:104A40006947EAFB6957EBFB696711EE109AEEFBC9
:104A50006918EAFB6928EBFB693813EE109AECFB46
:104A60006948EEFB6958EAFB6968EBFB697800BDB1
:104A70002DE9F04F07EE900AFFF76EFF17EE909AC0
:104A8000A9EC054A89E8FF01BDE8F08F00B591E87F
:104A9000805FA7FB0750A7FB0834E7FB6803E7FB31
:104AA000694340EC145AA7FB0905E7FB6A35E8FBAC
:104AB0006840E7FB6A30E7FB6B50A8FB0921E7FB86
:104AC0006B51E7FB6C01E8FB6932E8FB6A52E7FBDC
:104AD0006C02E7FB6E1243EC154AA8FB0A43E8FBA5
:104AE0006B03E7FB6E13E8FB6E23E9FB6954E8FBFD
:104AF0006B04E8FB6C14E8FB6E24E9FB6E3406EEF5
:104B0000105AA9FB0A65E8FB6C15E9FB6C25E9FB6B
:104B10006E35EAFB6E45E9FB6A06E9FB6B16E9FBBD
:104B20006C26EAFB6C36EAFB6E46EBFB6E56A9FB85
:104B30000B87EAFB6B27EAFB6C37EBFB6C47EBFB65
:104B40006E57ECFB6E67EAFB6A18EAFB6B28EBFB1F
:104B50006B38EBFB6C48ECFB6C58ECFB6E68EEFBC7
:104B60006E7800BD2DE9F04F07EE900AFFF78EFF3B
:104B700017EE909AA9EC054A89E8FF01BDE8F08F8D
:104B80002DE9F00791E8F807B2E802105B1854EB42
:104B90000C04B2E802104D4156EB0C06B2E80210CC
:104BA0004F4158EB0C08B2E8021059EB01095AEBDF
:104BB0000C0A80E8F80780410130BDE8F007704733
:104BC0002DE9F00791E8F807B2E802105B1A74EBE0
:104BD0000C04B2E802108D4176EB0C06B2E802102C
:104BE0008F4178EB0C08B2E8021079EB01097AEBFF
:104BF0000C0A80E8F80780414042BDE8F0077047A2
:104C00002DE9F007524290E87800B1E8800717409C
:104C1000DB1918EA020854EB080419EA020955EBFB
:104C200009051AEA020A56EB0A0678C090E87800ED
:104C3000B1E8800717407B4118EA020854EB0804EA
:104C400019EA020955EB09051AEA020A56EB0A06A7
:104C500078C080410130BDE8F00770472DE9F007CA
:104C6000524290E87800B1E880071740DB1B18EA51
:104C7000020874EB080419EA020975EB09051AEA3F
:104C8000020A76EB0A0678C090E87800B1E880075F
:104C90001740BB4118EA020874EB080419EA02093C
:104CA00075EB09051AEA020A76EB0A0678C080411C
:104CB0004042BDE8F00770472DE9F00152424FF045
:104CC000040890E8300091E8C000A31B1340E41AE8
:104CD000F618EB1B1340ED1AFF1830C0C0C1B8F135
:104CE0000108EED1BDE8F001704700BF00B592ECBD
:104CF000080AB1E8805707EE101A53EC102A56EC58
:104D0000114AA7FB0251A8FB020BE7FB6310E9FB6A
:104D100062B041EC145AA8FB0351EAFB6201E7FBC5
:104D200064B5E7FB6605E8FB661505EE10BAA9FB5E
:104D300003B6EAFB6316ECFB6356E8FB640BE9FB86
:104D4000641BEAFB645BECFB646B05EE900AACFB56
:104D5000023012EE104AEEFB6250E9FB6460EAFB9F
:104D600064B0E7FB6431E8FB645112EE904AE8FB63
:104D70006461E9FB64B1EAFB640106EE103AA7FB4B
:104D8000043213EE104AE7FB6462E8FB64B2E9FB0D
:104D90006402EAFB641211EE904AE9FB6453EAFBF9
:104DA000646313EE904AE7FB64B3E8FB6403E9FB3A
:104DB0006413EAFB642306EE905A17EE109A99E802
:104DC000000610EE108AA9FB0854EAFB68B412EE44
:104DD000108AECFB6804EEFB6814E9FB6824EAFB2C
:104DE000683410EE908AEEFB6865E9FB68B5EAFB73
:104DF000680512EE908AECFB6815EEFB6825E9FB6E
:104E00006835EAFB684507EE106A11EE108AAEFBC2
:104E10000876E9FB6806EAFB681613EE108AECFBDD
:104E20006826EEFB6836E9FB6846EAFB685611EE39
:104E3000908AECFB68B7EEFB6807E9FB6817EAFBB2
:104E4000682713EE908AECFB6837EEFB6847E9FBB6
:104E50006857EAFB686700BD2DE9F04F07EE900A3E
:104E6000FFF744FF17EE908A07EE90BAA8EC084AC5
:104E700088E8FF00BDE8F08F00B591E89857A3FBE4
:104E80000352A3FB0401E3FB6420E3FB671042EC45
:104E9000145AA3FB0752E3FB6802E4FB6415E3FB2F
:104EA0006805E3FB6925A4FB07B6E3FB6926E3FB82
:104EB0006A56E4FB670BE4FB682BE3FB6A5BE3FBEE
:104EC0006C6B40EC151AA4FB0810E4FB6950E3FB83
:104ED0006C60E3FB6EB0E7FB6721E4FB6951E4FB28
:104EE0006A61E3FB6EB1E4FB6E0106EE102AA7FBDC
:104EF0000832E4FB6A62E4FB6CB2E4FB6E02E7FB9F
:104F00006E12E7FB6853E7FB6963E4FB6CB3E7FBF6
:104F10006C03E7FB6E13E8FB6E2306EE905AA7FBCB
:104F20000954E7FB6AB4E7FB6C04E8FB6C14E8FB8C
:104F30006E24E9FB6E34E8FB6865E7FB6AB5E8FBC5
:104F40006A05E8FB6C15E9FB6C25E9FB6E35EAFBAD
:104F50006E4507EE106AA8FB0976E8FB6A06E9FBD6
:104F60006A16E9FB6C26EAFB6C36EAFB6E46ECFB44
:104F70006E56E8FB69B7E9FB6907E9FB6A17EAFBCC
:104F80006A27EAFB6C37ECFB6C47ECFB6E57EEFBD9
:104F90006E6700BD2DE9F04F07EE900AFFF76CFF3A
:104FA00017EE908A07EE90BAA8EC084A88E8FF004E
:104FB000BDE8F08F30B44FF0000310F8014B11F84A
:104FC000015B013A84EA050443EA0403F5D1A3F145
:104FD00001034FEAD37030BC704700BF4FF00003AD
:104FE00010F8012B013943EA0203F9D1A3F10103BF
:104FF0004FEAD370704700BF30B411F8014B12F87C
:10500000015B6C4000F8014B013BF6D130BC7047AE
:105010002DE9F00391E8F803B2E802105B1854EBB5
:105020000C04B2E802104D4156EB0C0692E8061053
:105030004F4158EB020859EB0C098941013B74F1CF
:10504000000475F1000576F1FF3677F1FF3778F14E
:10505000FF3879F1FF3951F1000113EBD17354F1AD
:10506000000455F100054E414F4158EB010859EB42
:10507000010980E8F803BDE8F00370472DE9F0036B
:1050800091E8F803B2E802105B1A74EB0C04B2E882
:1050900002108D4176EB0C0692E806108F4178EBFA
:1050A000020879EB0C09894113EBD17354F1000428
:1050B00055F100054E414F4158EB010859EB0109EC
:1050C00080E8F803BDE8F003704700BF2DE9F04F1A
:1050D00007EE900AFFF740FC5AEC359AB9EB050948
:1050E0007AEB060AB84171EB080172F1000273F124
:1050F000000374F100046BEB0B0B491972417B4107
:1051000054EB08044BF1000557EC146A15EE108AB5
:10511000BEEB0E0E59EB02095AEB030A60416941DE
:105120005EF1000E96419F4178EB040879EB05098A
:105130007AF1000A70F1000B71F1000C6EF1010EB2
:1051400016EBDE7657F1000758F1000859EB0E090F
:105150005AEB0E0A5BEB0E0B5CEB0E0C17EE900A93
:1051600080E8C01FBDE8F08F2DE9F04F07EE900AF0
:10517000FFF78CFCB0E700BF2DE9F00791E8F807D6
:10518000B2E802105B1854EB0C04B2E802104D4177
:1051900056EB0C06B2E802104F4158EB0C08B2E88F
:1051A000021059EB01095AEB0C0A8941B3F1FF33A4
:1051B00074F1FF3475F1FF3576F1000677F10007E1
:1051C00078F1000879F101097AF1FF3A51F1000113
:1051D0005B184C414D4156F1000657F1000758F15C
:1051E000000859EBD1795AEB010A80E8F807BDE8CD
:1051F000F00770472DE9F00791E8F807B2E80210D0
:105200005B1A74EB0C04B2E802108D4176EB0C06CD
:10521000B2E802108F4178EB0C08B2E8021079EB8B
:1052200001097AEB0C0A89415B184C414D4156F15A
:10523000000657F1000758F1000859EBD1795AEBF5
:10524000010A80E8F807BDE8F007704718EB04088A
:1052500059EB05095AEB060A5BEB070B5FF0000CF4
:105260004CF1000C18EB050859EB06095AEB070A3C
:105270005BEB070B50EB0C005FF0000C51EB0C01EB
:1052800052EB0C0263414CF1000CB8EB070879F1CA
:1052900000097AF1000A7BEB040BA841B141A2415D
:1052A000B3416CF1000CBBEB050BB041B941AA4115
:1052B000BB416CF1000C6FEAEC74B8EB040879EBBD
:1052C00004097AEB040A7BF1000B70F1000071F124
:1052D000000172EBD472A3416CF1000C18EBEC7876
:1052E00059EBEC795AEBEC7A5BF1000B50F10004CE
:1052F00051F1000552EBDC7653EBEC774CF1000CEE
:1053000018EBEC7059EBEC715AEBEC725BF10003AB
:1053100054F1000455F1000556EBDC7657EBEC77C1
:10532000704700BF2DE9F04F07EE900AFFF7DEFC53
:1053300059EC168A17EE10AAFFF788FF59EC148A69
:105340005BEC15AAFFF782FF17EE908A88E8FF0052
:10535000BDE8F08F2DE9F04F07EE900AFFF78CFDC6
:1053600059EC168A17EE10AAFFF770FF59EC148A51
:105370005BEC15AAFFF76AFF17EE908A88E8FF003A
:10538000BDE8F08F2DE9F00791E8F807B2E80210C8
:105390005B1854EB0C04B2E802104D4156EB0C06BE
:1053A000B2E802104F4158EB0C08B2E8021059EB7A
:1053B00001095AEB0C0A4FF0260261EB010122EAC7
:1053C00001015B1854F1000455F1000556F1000687
:1053D00057F1000758F1000859F100095AF1000A85
:1053E00061EB010122EA01010B4480E8F807BDE806
:1053F000F00770472DE9F00791E8F807B2E80210CE
:105400005B1A74EB0C04B2E802108D4176EB0C06CB
:10541000B2E802108F4178EB0C08B2E8021079EB89
:1054200001097AEB0C0A4FF0260261EB010102EA56
:1054300001015B1A74F1000475F1000576F10006B4
:1054400077F1000778F1000879F100097AF1000A94
:1054500061EB010102EA0101A3EB010380E8F80717
:10546000BDE8F007704700BF2DE9F04F07EE900A46
:10547000FFF73CFC4FF0260C59EC148A4FF0000A61
:10548000E0FB0C8AE1FB6C9A51EC150AE2FB6CA084
:10549000E3FB6C0153EC162AE4FB6C12E5FB6C2376
:1054A0005EEC174AE6FB6C34E7FB6CB40CFB04F4CF
:1054B00018EB040459F100055AF1000650F10007F9
:1054C00051F1000852F1000953F1000A5BF1000BA1
:1054D00060EB00002CEA000004448EE8F00FBDE809
:1054E000F08F00BF2DE9F04F07EE900AFFF7C4FCE4
:1054F000C0E700BF2DE9F00391E8F8134FF4EE3157
:10550000BF390022E3FB6123E4FB6134E5FB614525
:10551000E6FB6156E7FB6167E8FB6178E9FB6189BF
:10552000ECFB619C4FF0260101FB0CFC12EB0C0222
:1055300053F1000354F1000455F1000556F1000643
:1055400057F1000758F1000859F100096CEB0C0CF9
:1055500021EA0C010A4480E8FC03BDE8F00370472F
:105560002DE9F00390E8F8134FEAEC7202F0130211
:105570002CF0004C02F11301591854F1000155F1BF
:10558000000156F1000157F1000158F1000159F1F5
:1055900000015CF100014FEAE17101F013011144D7
:1055A0005B1854F1000455F1000556F1000657F15F
:1055B000000758F1000859F100094CF1000C2CF0DB
:1055C000004C80E8F813BDE8F00370472DE9F04F78
:1055D00090E8F00F00F140004FF0040E59E0F0B4F5
:1055E000826BC36B04680525242687593C444FEA27
:1055F000724787EAF24787EA92273C4442684FEABB
:10560000F21787EAB24787EAD2073C4440F8044BD6
:10561000032D08BF6FF01B0687593A444FEA7347C2
:1056200087EAF34787EA93273A4443684FEAF31738
:1056300087EAB34787EAD3073A4440F8042B8759EF
:105640003B444FEA744787EAF44787EA94273B4490
:1056500044684FEAF41787EAB44787EAD4073B4423
:1056600040F8043B013DC0D1A0F13C00076A3C4436
:105670004FEA724787EAF24787EA92273C4402687A
:105680004FEAF21787EAB24787EAD2073C44C4637D
:10569000F0BC4FF0020288EA781C8CEAF84C0BEB65
:1056A000BC1C8AEA090303EA080383EA0A039C4450
:1056B00050F8043B9C4451F8043B9C44674444EA42
:1056C000050B0BEA060B04EA05034BEA030BE34464
:1056D00084EAF42383EA34530BEBB30B87EA771C99
:1056E0008CEAF74C0AEBBC1C89EA080303EA0703BF
:1056F00083EA09039C4450F8043B9C4451F8043B62
:105700009C4466444BEA040A0AEA050A0BEA0403CD
:105710004AEA030AE2448BEAFB2383EA3B530AEB9F
:10572000B30A86EA761C8CEAF64C09EBBC1C88EAC4
:10573000070303EA060383EA08039C4450F8043B8A
:105740009C4451F8043B9C4465444AEA0B0909EA2D
:1057500004090AEA0B0349EA0309E1448AEAFA2345
:1057600083EA3A5309EBB30985EA751C8CEAF54CD8
:1057700008EBBC1C87EA060303EA050383EA070378
:105780009C4450F8043B9C4451F8043B9C446444C2
:1057900049EA0A0808EA0B0809EA0A0348EA030882
:1057A000E04489EAF92383EA395308EBB30884EA31
:1057B000741C8CEAF44C07EBBC1C86EA050303EA74
:1057C000040383EA06039C4450F8043B9C4451F8CC
:1057D000043B9C44E34448EA090707EA0A0708EA4D
:1057E000090347EA0307674488EAF82383EA385342
:1057F00007EBB3078BEA7B1C8CEAFB4C06EBBC1C6B
:1058000085EA040303EA0B0383EA05039C4450F88A
:10581000043B9C4451F8043B9C44E24447EA08069C
:1058200006EA090607EA080346EA0306664487EA29
:10583000F72383EA375306EBB3068AEA7A1C8CEA2D
:10584000FA4C05EBBC1C84EA0B0303EA0A0383EA67
:1058500004039C4450F8043B9C4451F8043B9C4492
:10586000E14446EA070505EA080506EA070345EAB2
:105870000305654486EAF62383EA365305EBB30550
:1058800089EA791C8CEAF94C04EBBC1C8BEA0A030C
:1058900003EA090383EA0B039C4450F8043B9C444D
:1058A00051F8043B9C44E04445EA060404EA07043A
:1058B00005EA060344EA0304644485EAF52383EA1F
:1058C000355304EBB304013A7FF4E5AEA0F1400098
:1058D000BEF1010E7FF483AEA0F1400C9CE80F00F6
:1058E000001949199219DB19ACE80F009CE80F0068
:1058F0004044494452445B44ACE80F00BDE8F08F9B
:105900002DE9F04F099E88468E46154604461946F5
:10591000002B40F0C7804245B2FA82F746D94FB11A
:10592000C7F1200C08FA07F320FA0CFCBD404CEA42
:10593000030EBC404FEA15481FFA85FCBEFBF8F980
:10594000220C08FB19E309FB0CFA42EA03439A45CF
:1059500028D9EB1809F1FF3004D29A4502D9A9F1F0
:1059600002002B44A3EB0A03A4B2B3FBF8F208FB3A
:10597000123302FB0CFC44EA0344A44514D92C194D
:1059800002F1FF3303D2A44501D9931E2C44A4EBAA
:105990000C0443EA00401EB1FC40002334607360F5
:1059A000BDE8F08F4846DDE71346F0E702B9FFDEB9
:1059B0008FBBA8EB020301214FEA154EAAB2B3FB3D
:1059C000FEFC200C0EFB1C330CFB02F840EA0343E8
:1059D000984563D9EB180CF1FF3004D2984502D9F1
:1059E000ACF102002B44A3EB0803A4B2B3FBFEFC12
:1059F0000EFB1C330CFB02F244EA0344A2424FD9D3
:105A00002C190CF1FF3304D2A24202D9ACF10203EB
:105A10002C44A41ABDE7C7F1200C28FA0CF908FAA7
:105A200007F320FA0CFCBD404CEA03024FEA154E86
:105A3000ABB2B9FBFEFC110C0EFB1C900CFB03F887
:105A400041EA0040804504FA07F423D928180CF1F4
:105A5000FF3104D2804502D9ACF102012844A0EB09
:105A6000080092B2B0FBFEFC0EFB1C000CFB03F81E
:105A700042EA004398450FD9EB180CF1FF3204D2EB
:105A8000984502D9ACF102022B44A3EB080342EA89
:105A9000014191E76146E2E76246F6E76046A2E728
:105AA0006346B6E7434505D90EB1C6E900080021B3
:105AB000084675E7B3FA83FCBCF1000F10D14345EB
:105AC00001D382420AD8841A68EB030301209E4660
:105AD000002E68D0C6E9004E002161E76046F7E776
